:400000000080002011000000911300009113000008B5044B1A6803F53F5302331A6001F0D7F900BFFA46004010B5054C237833B9044B13B10448AFF300800123237010BD5E
:400040000083FF1F0000000060590000084B10B51BB108490848AFF300800848036803B910BD074B002BFBD0BDE81040184700BF000000000483FF1F60590000C880FF1F1C
:400080000000000008B5002001F00AFC08BD00BF684620F007018D4619B572B6EFF311841E4B1B68DBB20F2B10D9103B23F0030202F1604202F564421168DB0003F018034F
:4000C000E0229A400A4022FA03F306E00F2B03D1134B1B681B0E00E0002383F31188114A136801331360012B01D102F0E1FA62B6FFF7C8FF72B684F3118801F011FE094A10
:400100001368013B13601BB902F0DBFA02F09FFA62B6BDE819408546704700BF04ED00E020ED00E0189EFF1F08B562B6054A064B1A60064A136843F002031360002001F010
:4001400021FFFBE73F19010014E000E010E000E008B502F031F800F031FF00F091FF01F077FF0D4A136843F0050313600B4802F03DF801221146002001F0FAF90A221146A6
:40018000012001F0F5F9032001F07EF9012001F07BF901F03FFF08BD10E000E06859000000BFFDE708B501F095FF012803D10121022001F025FC01F095FF012803D10221CC
:4001C000084601F01DFC08BD684620F007018D4619B572B6EFF311841E4B1B68DBB20F2B10D9103B23F0030202F1604202F564421168DB0003F01803E0229A400A4022FA07
:4002000003F306E00F2B03D1134B1B681B0E00E0002383F31188114A136801331360012B01D102F045FA62B6FFF7BCFF72B684F3118801F075FD094A1368013B13601BB957
:4002400002F03FFA02F003FA62B6BDE819408546704700BF04ED00E020ED00E0189EFF1F08B501F047FF012803D10421032001F0C7FB01F047FF012803D10821032001F01E
:40028000BFFB08BD684620F007018D4619B572B6EFF311841E4B1B68DBB20F2B10D9103B23F0030202F1604202F564421168DB0003F01803E0229A400A4022FA03F306E008
:4002C0000F2B03D1134B1B681B0E00E0002383F31188114A136801331360012B01D102F0E7F962B6FFF7BCFF72B684F3118801F017FD094A1368013B13601BB902F0E1F964
:4003000002F0A5F962B6BDE819408546704700BF04ED00E020ED00E0189EFF1FB0F57A7F06D908B5034801F061FF4FF0FF3008BD002070477459000008B5074B188803F0F5
:400340002FFC064801F052FF054801F04FFF054801F04CFF08BD00BF1C83FF1F80590000BC590000D459000010B503F041FC154B83FB0032C317C3EBE2134FF4FA6202FB33
:400380001303A3F11800C0B202F044F80E4B188803F006FC03F02CFC0C4B184003D5013860F0010001300130C4B22146012000F039FE2146002000F035FE034B1A885A80C6
:4003C00010BD00BFD34D62101C83FF1F0100008010B582B002AC002344F8043D0A4B188803F0DEFBFFF7A8FF0C2001F09BFB2146032001F0DDFA019801F0AAFAFFF7B4FF22
:40040000022001F041F8E5E71C83FF1F08B5034A13880133138001F0FDFD08BD1C83FF1F30B58FB0002400230393092C55D8032001F078FB03A9022001F0BAFA039801F025
:4004400087FA3A4A138855885D1BADB22846FFF765FFB0F1FF3F39D0039B13F0010F17D0002000F0F9FD02280FD1304B5A6801325A6003EB84039D602A462D4904A803F0AF
:40048000F1FB04A801F0B2FE02E02A4801F0AEFE039B13F0020F17D0012000F0DDFD01280FD1224B5A6801325A6003EB84039D602A461F4904A803F0D5FB04A801F096FE7F
:4004C00002E01C4801F092FE0134E4B2012000F0C9FD002000F0C6FDA5E70A2CA3D108E0124A02EB83018968106B01441163013300E00023A342F3DB0C4D2C6B204602F07E
:40050000FBFC0D4902F000FE6D6802F0E7FBCDE9000123462A46094904A803F0A3FB04A801F064FE01F076FD0FB030BD1C83FF1F005A00003C5A000000002041605A0000DF
:4005400038B50D4B1B78082B12D80C4C5A00D118480021188D888A784978205C00F04EFD284601F057FF044A13780133137038BD0022014B1A7038BD5083FF1FB05A0000B9
:4005800010B5234B5B68012B18D0022B2BD0002B3CD11F4C207A01F089FFA068C043C0B202F014F8A3680F33A36001F0ADFFFF282CD1012262600022A26010BD144C207BF6
:4005C00001F0BCFFE068C043C0B201F06FFFE3680F33E36001F0E0FFFF2817D1022262600022E26010BD0A4C207C01F0EFFF2069C043C0B201F0A2FF23690F33236102F0C8
:4006000013F8FF2802D100226260226110BD00BF5083FF1F08B5FFF793FFFFF7B1FF01F0F9FC08BD00B583B001A801F011FB0198013003B05DF804FB014B1868704700BF9A
:40064000041000E001300E4B184003D5013860F001000130002308E00130094B184003D5013860F0010001300B46064A32F8302012B1591C012BEFDD0AB14FF0FF3070476B
:4006800001000080FC9DFF1F294B9B68013B692B4AD8DFE803F03F414345474949494949494949494949494949494949494949494949494949494949494949494949494903
:4006C00049494949494949494949494949494949494949494949494949494949494949494949494949494949494949494949494949494949494949494949354B37393B3D08
:400700000C4870470C4870470C4870470C4870470C4870470C4870470C4870470C4870470C4870470C487047002070470B4870476483FF1FE85A0000545B0000885B000091
:40074000B45B0000E85B00001C5C0000485C0000785C0000A45C0000D85C0000205B000070B4EFF31086012383F310881E4B1D6A002207E022F003031B4C23445B6A834251
:4007800003D02032AA42F5D32A46B2F5A06F22D2154B22F003041C446062141D24331C44002304E0C85CE054C85C20B10133182BF8D900E00133C85C08B17F2BFAD90A4966
:4007C00009698B4201D908490B61AA4207D12035054B1D6203E0044AD3680133D36086F3108870BC704700BF6483FF1FF0B4EFF31086012383F31088164BD3F8245500239A
:4008000008E023F00302134C2244D2F82825824203D00833AB42F4D32B46B3F5A07F11D29C080C4A02EB8407C7F82805013402EB8402C2F82815AB4208D10835054BC3F830
:40084000245503E0034A53690133536186F31088F0BC70476483FF1F10B50446274BD868B0F1FF3F0ED1FFF7EDFE244BD860B0F1FF3F07D1224AD2F868360133C2F8683694
:40088000002010BD1D4BD8681E4B03EBC0035B881B1B002B1EDA1B4B022223F8302003EBC0035988154A13685B1A13601269934201D2124A1361FFF7C5FE104BD860B0F124
:4008C000FF3F07D10E4AD2F868360133C2F86836002010BD094AD1680A4B03EBC1035868011959605988091B5980A4B213681C1B146013699C4200D2146110BDCC80FF1F51
:400900006483FF1FFC9DFF1F10B5EFF31084012383F310880C4BDB699BB11420FFF79CFF78B10A4A02600422828041F6A122C28000228260202282812822C281082101821D
:40094000428284F3108810BD6483FF1F0046535070B5EFF31086012383F310880F4BDB69A3B917E02020FFF777FF054648B90BE0E1180A4A02EB8102526A45F82320013319
:4009800000E00023072BF3D9083400E00024B4F5A07FE7D386F3108870BD00BF6483FF1F70B5EFF31086012383F310880F4BDB69ABB917E00820FFF74FFF054650B90CE0FE
:4009C000E1180A4A02EB8102D2F8282545F82320013300E00023012BF2D9023400E000244F2CE7D986F3108870BD00BF6483FF1F2DE9F84F002400E001340B5D0BB1332CE5
:400A0000FADD261D00D50336B61018B94FF0900A002302E04FF0910A01239F001E440F2E0ADD0F3EB600244B9B699E4201D9224B9E61C7F13C040F26EFF31088012383F319
:400A400010881D4BDB699BB30D468346B01C1A4AD2F86C360133C2F86C368000FFF7FCFE814628B33603B6B24AEA060AA0F800A0114BB3F86C364380FFF7DEFDC9F804006B
:400A8000BBF1000F01D0C9F808B009F10809002304E0DA19E95C09F8021001339C42F8DCC7F13C039C4203DA3C44002309F8043088F31088BDE8F88F6483FF1F08B5FFF76D
:400AC00097FF08BD08B5064BDB693BB1FFF7DCFD014618B1034B1868FFF7F0FF08BD00BF6483FF1FF89DFF1F30B40F4B1860EFF31085012383F3108800230EE00B4901EBDF
:400B0000C30040F6C4124280074C246802FB03424260002221F833200133012BEEDD85F3108830BC704700BF6483FF1FFC9DFF1F1C4BDB69834234D070B50446FFF772FD32
:400B40000546EFF31086012383F31088154BDC6100B9022514B3144C2046FFF7C5FF2046FFF7C2FF0F4C0023C4F86C36FF220F4B1A75FFF7C9FEFFF7EBFEFFF711FFD4F84B
:400B80007016D4F874365A1CC4F874262A46012000F04CF900F0C6F9FFF794FF86F3108870BD70476483FF1F708AFF1FCC80FF1F08B5084B9B685BB9064B9860FFF782FF0C
:400BC0000549064B186800F07FF80020FFF7B0FF08BD00BF6483FF1F0C5D0000F89DFF1F2DE9F84F0B9FB1F5805F04D30120FFF7DFFFBDE8F88F05468A4690461E461C1DF3
:400C000000D50334A410B8F1000F00D001354FEA85092C440F2C0ADD0F3CA400294B9B699C4201D9274B9C61C9F13C060F24EFF3108B012383F31088224BDB69002B3DD088
:400C4000A01C204AD2F86C360133C2F86C368000FFF702FE90B32403A4B24AEA040AA0F800A0184BB3F86C3604464380FFF7E4FC21466060083100230DE0B8F1000F03D014
:400C800013B941F8238005E03A68101D3860126841F8232001339D42EFDC002305E003EB09020A98C05C885401339E42F7DCC9F13C039E4202DA4E4400238B558BF310888A
:400CC000BDE8F88F6483FF1F0EB470B585B0099D0026334609E0252906D10134295D11B1252900D00136013301331C46E95C09B1332BF0DD0AAA039250B106F1910103AA0E
:400D000001920095024689B23046FFF769FF09E006F1900103AA01920095024689B23046FFF75EFF05B0BDE8704003B0704700BF0CB430B585B0089C002300E00133E25C7C
:400D40000AB1332BFADD04AA09AD42F8045D019200940022FFF744FF05B0BDE8304002B0704700BFF8B5B0F5805F03D30120FFF71FFFF8BD04460E46EFF31085012383F370
:400D800010880E4BDB69ABB10C4AD2F86C360133C2F86C360C20FFF75FFD074650B144F480540480054BB3F86C364380FFF744FC7860BE6085F31088F8BD00BF6483FF1FDF
:400DC0002DE9F041B0F5805F04D30120FFF7F0FEBDE8F08104460F461646EFF31085012383F31088104BDB69CBB10F4AD2F86C360133C2F86C361020FFF72EFD804670B1EA
:400E000044F400540480084BB3F86C364380FFF713FCC8F80400C8F80870C8F80C6085F31088BDE8F08100BF6483FF1F2DE9F843B0F5805F04D30120FFF7BAFEBDE8F8838D
:400E40000446884617461E46EFF31085012383F31088114BDB69DBB10F4AD2F86C360133C2F86C361420FFF7F7FC814680B144F440540480084BB3F86C364380FFF7DCFBDA
:400E8000C9F80400C9F80880C9F80C70C9F8106085F31088BDE8F8836483FF1F0EB4F0B582B0BDF81C70B7F5805F03D30120FFF77FFE2FE00446EFF31086012383F31088AF
:400EC000174BDB6923B30230154AD2F86C360133C2F86C368000FFF7BFFC0546C0B123039BB21F4307800E4BB3F86C364380FFF7A3FB686008AB0193002307E0019A111DC1
:400F0000019111689A1C45F822100133A342F5DB86F3108802B0BDE8F04003B0704700BF6483FF1F00B583B00A4B5B6813B90A4A084B5A60074B5A68002301930123009323
:400F40004FF47A7302210420FFF7A8FF03B05DF804FB00BF6483FF1F00A24A0438B504460D46032824D8DFE800F00209101E084601F0D0F8104B1D55002038BD084601F0D9
:400F8000D5F80D4B1D55002038BD084601F0DAF8094B1D55002038BD29462046FFF7DEFF0134E4B200E00024022CF5D9002038BD6FF0130038BD00BF008AFF1F38B5002432
:400FC000254609E000210C4B19552046FFF7C6FF00B105460134E4B2022CF3D901F0E2F901F098F901F04EF901F080FA01F0C6FA01F00CFB284638BD008AFF1F70B50E46B7
:401000001546074C34F8100001F016F934F8160001F05AF934F8150001F09EF9002070BD305D00000F290ED838B50C46054601F03FF8064B185D064B5C55064B585501F016
:4010400043F8002038BD6FF013007047305F0000E480FF1F048AFF1F014B185C704700BFE480FF1F08B5FF22044B1A5401F020F8002001F029F8002008BD00BFE480FF1F86
:4010800008B50020FFF7EEFF0120FFF7EBFF002008BD00BFFEE700BFF0B40022174611E050F82760F3B226F0FF0608E001EB420511F812406D78A5550132013BDBB2002B08
:4010C000F4D101372B2FEBD9F0BC704738B500242E4B1C80582202331A702C2202331A8018232B4A13704D21023211800232137041F26F71023211800232137043F63F01D1
:4011000002321180023213700622224B1A705222A3F580731A70204B1B78DBB21F4A13704FF4E3621E4B1A8042F25122023B1A8019250CE01B4B1B7803F0010343EA44047C
:4011400004F003044FF4F07001F03AFB013D0DB1032CEFD115B90320FFF79CFF124A4FF48073138007231370002310490B7048200231087013700532137002220C4B1A7020
:401180000C4A137843F01F03137038BD8040004086400040004300400F010049A14600402242004025420040044000400640004001400040A243004008B50A46002102F05D
:4011C00076F808BDF8B5164B1B78DBB2154E3478E4B2154F3D78EDB203F00701134A11701B090132137044F00303337045F003033B7003220E4B1A7040230E4A1370023241
:40120000137030220C4B1A70202203331A700A2001F016F93D7034704422084B1A70F8BDCF010049F8460040F94600406E5800400D51004001590040205B00407658004066
:4012400008B502F029F808BD38B572B661223A4B1A70FFF73BFF00240CE0384D630019194A0011462A44084691882858FFF7A4FF0134E4B2062CF0D900240BE02F49A30059
:401280001819420088181022016BC06AFFF7D8FF0134E4B2002CF1D029494FF09040FFF7FBFE04212748FFF787FF042226492748FFF7C6FF264A137843F002031370103297
:4012C000137843F002031370224C237843F040032370A2F58632513A137843F01003137008221D491D48FFF7ABFF0A221C491D48FFF7A6FF0A221C491C48FFF7A1FF08228D
:401300001B491C48FFF79CFF08221B491B48FFF797FF08221A491B48FFF792FF1A4A137843F008031370FFF74DFF0E2221461748FFF786FF38BD00BF00480040445F00001E
:40134000B000004800760040B80E00480876004003500140A0430040800E004802510040880E0048C0510040940E0048F0510040A00E004812510040A80E004822510040EF
:40138000B00E00483251004022430040B043004008B501F055FF03680C2B00D1FEE7FEE708B5094B1A681044084BC31AB3F5007F02DC054B186005E001F042FF0C230360C0
:4013C0004FF0FF32104608BDE880FF1F48A8FF1F08B5104E104D16E029686B68AC68002204E051F8040B43F8040B0432A242F8D1E868002203E0002143F8041B0432824293
:40140000F9D11035013E002EE6D101F01FFFFEF78BFEFEE701000000C863000008B5114A114B1A60114A136843F40073136000230AE0032B03D80E4A52F8231000E00D49D9
:401440000D4A42F8231001332F2BF2D90B4B1A780B4B1A70084A0B4B1A60FFF7F5FE00F0BDFF08BD0004FA050CED00E014ED00E000000000911300000080FF1FBC7600409A
:40148000C080FF1F08ED00E038B5EFF3108572B605284ED82D4B53F82030002B4BD02B4A013B42F820302A4B53F82030032B07D10222274B43F820200022264B43F8202051
:4014C00000F09EFC244B1B68002B36D1234B1C6800F074FCB0F1FF3F31D0214B53F82020204B1B689A422CD9B4F1FF3F03D00221174A42F824101C4A52F820201343194AF5
:4015000013600022124B43F8202000F013FC174B53F820304BB10024144B43F8204040F0004001F0D7F820460CE001F0D3F8002008E0032006E0042004E0002002E00020AF
:4015400000E0002085F3108838BD00BF4481FF1FF881FF1F388AFF1F189EFF1FDC81FF1F3C610000588AFF1F14610000088AFF1FF8B504460E461746EFF3108572B600F104
:401580000A01A220FFF71CFC012C26D804EB44029300194AD35803EB43018A0017498A58B2421CD34FB103EB43039900134B19448B689F4215D3974215D8B6B12301104AFF
:4015C000D358A3B92301D1180120D0504F60711E204600F087F800200AE0032008E0082006E0082004E0082002E0082000E0072085F31088F8BD00BFB0600000D8600000CF
:4016000038A2FF1F18B108B5C368984708BD704708B508B1406800E00020052816D80C4B53F8203093B10A4A013B42F82030094B53F82030032B07D10222064B43F8202038
:401640000022054B43F8202000F0DAFB08BD00BF4481FF1FF881FF1F388AFF1F18B1034640689B6801E00023184605281DD80F4A52F82020CAB10E4A52F82010032914D059
:4016800010B50C4C54F820201A4344F820200A4A52F82020134207D0012905D10222044B43F8202000F0ACFB10BD7047E4600000F881FF1F388AFF1F208AFF1F80B108B524
:4016C0000378012B06D013B1032B06D008BDFFF79FFF08BDFFF7C2FF08BDFFF793FF08BD704700BF30B400EB40029300214AD258214B03EBC2035C68B4F1FF3F04D11E4B0B
:4017000003EBC20250602DE01C4B03EB04139B6899420AD2184D05EBC2025060174A02EB04125B1A93601DE01C46144B03EB04139A68891ADB68B3F1FF3F05D00F4A02EBD7
:40174000031292689142EFD2B3F1FF3F05D00B4A02EB031295686D1A9560084A02EB0414E0601C46054B03EB00108160C46030BC704700BFB0600000F480FF1F38A2FF1FF7
:4017800038B5414A02EBC0035C6852F83030013342F8303000EB40018A003C498A58934203D90022384B43F83020B4F1FF3F6AD0374B03EB04139B68002B5FD1214600E07E
:4017C0001946334B03EB0113DB68B3F1FF3F05D02F4A02EB03129268002AF1D02C4A02EB01114FF0FF32CA60274A02EBC0004360B3F1FF3F07D0264A02EB03139A68013A77
:401800009A6000E02C4604EB44029300214A13441B7A03BB04EB440293001E4A134459681D4B53F8215005EB850293001B4AD35C53B905EB85029300184A13445A680132B1
:401840000A31AA20FFF7BCFA05EB8505AB0013481844FFF733FF0E4B03EB0413DD68596821B101392046FFF73DFF03E024010022074B1A51B5F1FF3FC4D138BD044A02EB1B
:401880000414013BA36038BDF480FF1FD860000038A2FF1FB0600000D06000008860000038B5EFF3108572B6002838D1FFF768FF204B1B68002B34D11F4B1C6800F07EFA64
:4018C000B0F1FF3F2FD01D4B53F820201C4B1B689A422AD9B4F1FF3F03D00221194A42F82410194A52F820201343154A13600022144B43F8202000F01DFA144B53F8203092
:401900004BB10024114B43F8204040F0004000F0E1FE20460AE000F0DDFE002006E0032004E0002002E0002000E0002085F3108838BD00BF189EFF1FDC81FF1F3C61000057
:40194000588AFF1FF881FF1F14610000088AFF1F70B50546EFF3108672B6114B1C680246611CCB20FFF72CFA0E4B1B687BB9B4F1FF3F0ED00C4B53F8243063B10B4A52F875
:40198000243023EA050542F82450002004E0022002E0022000E0012086F3108870BD00BFDC81FF1F189EFF1FE4600000388AFF1F10B505280FD80F4B53F820306BB10E4B30
:4019C00053F82030032B0AD059B10C4B53F820300B60002406E0032404E0012402E0072400E00E240A68411CCA20FFF7E9F9204610BD00BFE4600000F881FF1F388AFF1F46
:401A000070B504460D46EFF3108672B63B4B1B682BB90A46411CC920FFF7D2F904E00A46411CD020FFF79EF9052C54D8344B53F82430002B51D0334B53F82430032B4ED0C2
:401A4000314951F824202A4341F824202F4A52F82420154245D0012B45D10222294B43F82420204600F0CCF9244B1B68002B3CD1274B1C6800F0A2F9B0F1FF3F37D0254B8D
:401A800053F82020244B1B689A4232D9B4F1FF3F03D002211B4A42F82410204A52F8202013431D4A13600022164B43F8202000F041F91B4B53F820304BB10024184B43F80B
:401AC000204040F0004000F005FE204612E000F001FE00200EE003200CE001200AE0072008E0002006E0002004E0002002E0002000E0002086F3108870BD00BF189EFF1FA8
:401B0000E4600000F881FF1F388AFF1F208AFF1FDC81FF1F3C610000588AFF1F14610000088AFF1FF8B50546EFF3108672B63D4B1C680246611CCD20FFF742F93A4B1B6856
:401B4000002B64D1B4F1FF3F63D0384B53F82430002B60D0364B53F824301D425DD1354B43F824502F490B680120334A42F82300324A52F82370324D2A6822EA07022A60A7
:401B8000304A42F82300304A52F823300B6000F015F9B0F1FF3F05D02C4B53F820202B689A4214D81F4B1D68B5F1FF3F0AD00022214B43F82520254B53F82520691C372026
:401BC000FFF7FEF845F0004000F084FD1AE00021194A42F82010194A52F820201343184A136000F0A7F8174B53F8203043B10022144B43F8202040F0004000F06BFD01E0EE
:401C000000F068FD00200B4B43F8240006E0022004E0022002E0012000E0002086F31088F8BD00BFDC81FF1F189EFF1FE4600000388AFF1F208AFF1FF881FF1F146100009D
:401C4000588AFF1F088AFF1FE081FF1F3C61000020B1034A12680260002070470E207047DC81FF1F38B500F065F804460E4B53F82030B3B100220C4B43F820200B4D2968AE
:401C800001313020FFF76EF82968094B53F8212001313720FFF794F844F00044054B1C6038BD044B186038BD088AFF1FDC81FF1F3C6100001C9EFF1F10B500F07FF8124BAC
:401CC0001B68B0F1FF3F1AD0104A52F82010104A1268914213D9B3F1FF3F03D002240D4941F8234000210B4B43F820100A4B53F820301A43064B1A60FFF7B4FF10BD43F0C1
:401D00000043064A136010BDDC81FF1F3C610000588AFF1FF881FF1F146100001C9EFF1F034B1B6813B10022014B1A60704700BF0C9EFF1FF0B4184B19880B0A174AD356D2
:401D4000B3F1FF3F01D1535601E008335BB2144D55F82320134850F82200134E56F8224045F82340114D2F6846F822702A60B4F1FF3F09D10E4A42F82340012202FA03F360
:401D800021EA0301044B19800A4B19680A4A42F820101860F0BC7047548AFF1F7C5F00009C81FF1F08A2FF1F1481FF1F508AFF1F5C81FF1FDC81FF1FE081FF1F0C4B1A884A
:401DC000130A0C49CB56B3F1FF3F01D18B5601E008335BB2B3F1FF3F06D0074A52F82320064B53F8220070474FF0FF30704700BF548AFF1F7C5F00009C81FF1F08A2FF1FC9
:401E000030B4144B53F82020134C2368134951F823502560124C44F823004FF0FF3441F82340104951F82210A1420AD10E4951F820400E480188214301800D4941F822304B
:401E400002E0064840F82130064941F8223030BC704700BF2C81FF1F508AFF1F1481FF1F08A2FF1F5C81FF1F3C610000548AFF1F9C81FF1F10B150F8210070474FF0FF3011
:401E8000704700BF0122014B1A60FEE7149EFF1FF8B500241AE0651C1B4F57F824102846FEF75EFC194B53F8246031462846FEF79DFC2B4657F8242003210120FEF738FFFD
:401EC000324629461020FEF77BFF2C46052CE2DD002416E00E4B53F824500A350D4E56F824102846FEF73CFC2B4656F8242003210120FEF71DFF552229461420FEF760FF4A
:401F00000134012CE6D9F8BD2082FF1F3C610000C8600000EC80FF1F70B50546124B53F8306000241CE0104B03EBC50321465868FFF7A0FF0D4A52F82030013B42F8203070
:401F40000B4B53F82030032B07D10222084B43F820200022074B43F82020FFF751FF0134B442E0D370BD00BF7C6000004481FF1FF881FF1F388AFF1F18B908B5FFF7CCFFF4
:401F800008BD70471A4B1B4ADA621B4A9A631B4ADA63EFF3108272B6194B1B6823BB10B5044600F055F8174B1C600122144B1A60FFF76EFF2046FFF7DFFFFFF7FFFEB0F1E3
:401FC000FF3F0ED0104B53F82030104A11680B43136000220E4B43F82020FFF7ABFE00F079FB62B6FFF74EFF82F31088072070470080FF1F95260000592600009100000093
:40200000149EFF1F58A2FF1F14610000588AFF1FF881FF1F08B5EFF3108272B6094B1968094B1B6833B94FF0FF30084B43F82100002000E0022010B9084600F0A4FB82F361
:40204000108808BDDC81FF1F189EFF1FFC80FF1F70B5124B1E68EFF3108572B600F0EAFA0F4A136843F07F4313600E4B33650721042000F0EFF90C4C236843F010032360A2
:402080000A4BB3650421062000F0E4F9236843F04003236085F3108870BD00BF08ED00E020ED00E0C901000000E100E085020000044A137803F0DF03400100F020001843ED
:4020C0001070704730510040014B1870704700BF79650040024B1878C0F3C000704700BF01510040024B1878C0F30010704700BF01510040024B1878C0F34010704700BF2A
:4021000001510040024B1878C0F38000704700BF31510040044A137803F0BF03800100F0400018431070704700510040044A137803F0FE0300F0010018431070704700BF54
:4021400020510040044A137803F07F03C001C0B218431070704700BF005100407222074B1A702022023B1A7006225D3B1A70472210331A70022253331A707047876500403B
:4021800010B500F025FB04460A4A137843F020031370023A137843F0100313700632137843F01003137000F00BF9204600F014FB10BD00BF9765004008B5054B1B7823B98F
:4021C000FFF7CCFF0122024B1A70FFF7D9FF08BD608AFF1F034B1B7813F0040FFAD1024B187070476B6500404B65004038B5074B1B782BB938BDFFF7EDFF0134A4B201E042
:4022000005460024285D0028F5D138BD608AFF1F024A137843F08003137070477F640040014B1880704700BF18680040014B1880704700BF98680040014B1880704700BFC7
:402240005868004008B50E4A137803F0C00343F0090313701D32137843F0010313700132137843F0010313704FF6FF70FFF7D8FF4FF6FF70FFF7DAFF0020FFF7DDFF08BD7F
:402280007F64004008B5054B1B7823B9FFF7DAFF0122024B1A70FFF7BBFF08BD628AFF1F024A137843F08003137070477E640040014B1880704700BF1C680040014B18804C
:4022C000704700BF9C680040014B1880704700BF5C68004008B50E4A137803F0C00343F0090313702032137843F0010313700132137843F0010313704FF6FF70FFF7D8FF1E
:402300004FF6FF70FFF7DAFF0020FFF7DDFF08BD7E64004008B5054B1B7823B9FFF7DAFF0122024B1A70FFF7BBFF08BD638AFF1F024A137843F08003137070477D64004094
:40234000014B1880704700BF14680040014B1880704700BF94680040014B1880704700BF5468004008B50E4A137803F0C00343F0090313701D32137843F00103137001327C
:40238000137843F0010313704FF6FF70FFF7D8FF4FF6FF70FFF7DAFF0020FFF7DDFF08BD7D64004008B5054B1B7823B9FFF7DAFF0122024B1A70FFF7BBFF08BD648AFF1F36
:4023C000054A137843F0040313701032137843F004031370704700BFA24300400B4A7F2313708021517007E0DA0002F1804202F5F042013BDBB21370002BF5D1DB0003F19A
:40240000804303F5F04300221A7070474882FF1F01BE704710B5044605E0084B186800F0CFF9A4F50044B4F5004FF6D8034B586800FB04F000F0C4F910BD00BF5082FF1FA5
:4024400008B5034B1B7A00FB03F000F0B9F908BD5082FF1F38B504460D46072902D90020FFF7D6FF1F2C02D90020FFF7D1FF04F01F0000F1604000F564406D01EDB205702C
:4024800038BD00BF024A137843F08003137070477B640040014B1870704700BF08640040014B1870704700BF48640040014B1870704700BF2864004008B50B4A137803F0B0
:4024C000C00343F0090313701D32137843F001031370FF20FFF7DEFFFF20FFF7E1FF0020FFF7E4FF08BD00BF7B64004008B5054B1B7823B9FFF7E0FF0122024B1A70FFF7FF
:40250000C1FF08BD658AFF1F014B1878704700BF28640040024A137843F080031370704779640040014B1870704700BF09640040014B1870704700BF49640040014B187005
:40254000704700BF2964004008B50B4A137803F0C00343F0090313702032137843F001031370FF20FFF7DEFFFF20FFF7E1FF0020FFF7E4FF08BD00BF7964004008B5054BDE
:402580001B7823B9FFF7E0FF0122024B1A70FFF7C1FF08BD668AFF1F014B1878704700BF29640040024A137843F08003137070477C640040014B1870704700BF036400405D
:4025C000014B1870704700BF43640040014B1870704700BF2364004008B50B4A137803F0C00343F0090313701732137843F001031370FF20FFF7DEFFFF20FFF7E1FFFF20F0
:40260000FFF7E4FF08BD00BF7C64004008B5054B1B7823B9FFF7E0FF0122024B1A70FFF7C1FF08BD678AFF1F014B1878704700BF2364004018484FF47F0102680A430260F3
:4026400016486FF07F4102680A400260704714484FF080510160704772B611484FF000610160FFF729FB0F48006800F0E5F858B10C4800684FF080730B4A0C490FB40FB43D
:402680006FF00600004700BF6FF0060062B6004762B600DF08B0704720ED00E01CED00E004ED00E01C9EFF1FD526000091260000EFF30880054908600548006880F308887C
:4026C00070470248006880F3088870476082FF1F3882FF1F411C8900154A11440968154A136899421AD0F0B444464D4656465F46F0B400B5104C9B002344EFF308851D6090
:40270000116089002144096881F3088802BC8E46F0BCA046A946B246BB46F0BC002806DB00B500F07DF802BC8E46FFF7D3BF7047846100005C8AFF1F3C82FF1FF0B4444626
:402740004D4656465F46F0B400B5EFF3038308B48000174901440968164A0244EFF30883136088471448804704BC4FF08070024382F3038801BC8646F0BCA046A946B246C4
:40278000BB46F0BC704780000A4901440A6882F3088804BC4FF08070024382F3038808BC9E46F0BCA046A946B246BB46F0BC70475461000020A2FF1FE127000000000000D0
:4027C0000230800803D000BF01380046FCD17047EFF3108072B6704780F31088704700BF08B572B6014B1868FFF7CDFFDC81FF1F10B5094C216801313020FEF7B3FA21687A
:40280000064B53F8212001313720FEF7D9FA2068FFF794FF10BD00BFDC81FF1F3C61000008B562B6FFF7E4FF72B600F053F8014B186808BD1C9EFF1F00280BDA20F00040DE
:402840000130054B53F82000044B1B68181A18BF0120704701207047846100005C8AFF1F054B53F82020054B53F820309A4201D101207047002070474481FF1FFC60000096
:4028800038B5FFF757FA04460E4B53F82030B3B100220C4B43F820200B4D296801313020FEF760FA2968094B53F8212001313720FEF786FA44F00044054B1C6038BD044B9D
:4028C000186038BD088AFF1FDC81FF1F3C6100001C9EFF1F38B5444B1C680022434B1A60434A52F82430013342F82430414B53F824502046FFF7B4FF012801D0A54204D1A4
:4029000003223D4B43F8242003E002223A4B43F824203A4B53F82410394A136823EA01031360384B53F824402F4B1C60B5F1FF3F0FD0314B53F82530032B07D102222E4B30
:4029400043F825200022304B43F825202846FFF757FAFFF733FAB0F1FF3F19D1B4F1FF3F11D00022244B43F824201F4D296801313020FEF7F7F92968244B53F82120013123
:402980003720FEF71DFA44F00044214B1C6038BD1E4B53F820201A4B1B689A4216D80022154B43F82420104D296801313020FEF7D9F92968154B53F8212001313720FEF786
:4029C000FFF944F00044124B1C6038BD00210A4A42F82010094A52F820201343084A1360FFF74EFF38BD00BFDC81FF1F0C9EFF1F4481FF1FFC80FF1FF881FF1F14610000FF
:402A0000588AFF1FE081FF1F388AFF1F3C6100001C9EFF1F81F0004102E000BF83F0004330B54FEA41044FEA430594EA050F08BF90EA020F1FBF54EA000C55EA020C7FEA13
:402A4000645C7FEA655C00F0E2804FEA5454D4EB5555B8BF6D420CDD2C4480EA020281EA030382EA000083EA010180EA020281EA0303362D88BF30BD11F0004F4FEA013166
:402A80004FF4801C4CEA113102D0404261EB410113F0004F4FEA03334CEA133302D0524263EB430394EA050F00F0A780A4F10104D5F1200E0DDB02FA0EFC22FA05F28018D6
:402AC00041F1000103FA0EF2801843FA05F359410EE0A5F120050EF1200E012A03FA0EFC28BF4CF0020C43FA05F3C01851EBE37101F0004507D54FF0000EDCF1000C7EEBC8
:402B000000006EEB0101B1F5801F1BD3B1F5001F0CD349085FEA30004FEA3C0C04F101044FEA445212F5800F80F09A80BCF1004F08BF5FEA500C50F1000041EB045141EADA
:402B4000050130BD5FEA4C0C404141EB010111F4801FA4F10104E9D191F0000F04BF01460020B1FA81F308BF2033A3F10B03B3F120020CDA0C3208DD02F1140CC2F10C02E2
:402B800001FA0CF021FA02F10CE002F11402D8BFC2F1200C01FA02F120FA0CFCDCBF41EA0C019040E41AA2BF01EB0451294330BD6FEA04041F3C1CDA0C340EDC04F1140410
:402BC000C4F1200220FA04F001FA02F340EA030021FA04F345EA030130BDC4F10C04C4F1200220FA02F001FA04F340EA0300294630BD21FA04F0294630BD94F0000F83F409
:402C0000801306BF81F480110134013D4EE77FEA645C18BF7FEA655C29D094EA050F08BF90EA020F05D054EA000C04BF1946104630BD91EA030F1EBF0021002030BD5FEA22
:402C4000545C05D14000494128BF41F0004130BD14F580043CBF01F5801130BD01F0004545F0FE4141F470014FF0000030BD7FEA645C1ABF194610467FEA655C1CBF0B4639
:402C8000024650EA013406BF52EA033591EA030F41F4002130BD00BF90F0000F04BF0021704730B54FF4806404F132044FF000054FF0000150E700BF90F0000F04BF002147
:402CC000704730B54FF4806404F1320410F0004548BF40424FF000013EE700BF42004FEAE2014FEA31014FEA02701FBF12F07F4393F07F4F81F06051704792F0000F14BF50
:402D000093F07F4F704730B54FF4607401F0004521F0004120E700BF50EA010208BF704730B54FF000050AE050EA010208BF704730B511F0004502D5404261EB41014FF463
:402D4000806404F132045FEA915C3FF4DCAE4FF003025FEADC0C18BF03325FEADC0C18BF033202EBDC02C2F1200300FA03FC20FA02F001FA03FE40EA0E0021FA02F1144453
:402D8000C1E600BF80F0004002E000BF81F0004142001FBF5FEA410392EA030F7FEA226C7FEA236C6AD04FEA1262D2EB1363C1BFD218414048404140B8BF5B42192B88BFD3
:402DC000704710F0004F40F4000020F07F4018BF404211F0004F41F4000121F07F4118BF494292EA030F3FD0A2F1010241FA03FC10EB0C00C3F1200301FA03F100F000434B
:402E000002D5494260EB4000B0F5000F13D3B0F1807F06D340084FEA310102F10102FE2A51D2B1F1004F40EBC25008BF20F0010040EA03007047490040EB000010F4000F2D
:402E4000A2F10102EDD1B0FA80FCACF1080CB2EB0C0200FA0CF0AABF00EBC25052421843BCBFD0401843704792F0000F81F4000106BF80F400000132013BB5E74FEA4103CC
:402E80007FEA226C18BF7FEA236C21D092EA030F04D092F0000F08BF0846704790EA010F1CBF0020704712F07F4F04D1400028BF40F00040704712F100723CBF00F5000008
:402EC000704700F0004343F0FE4040F4000070477FEA226216BF08467FEA23630146420206BF5FEA412390EA010F40F4800070474FF0000304E000BF10F0004348BF4042EA
:402F00005FEA000C08BF704743F0964301464FF000001CE050EA010208BF70474FF000030AE000BF50EA010208BF704711F0004302D5404261EB41015FEA010C02BF8446C3
:402F40000146002043F0B64308BFA3F18053A3F50003BCFA8CF2083AA3EBC25310DB01FA02FC634400FA02FCC2F12002BCF1004F20FA02F243EB020008BF20F001007047BB
:402F800002F1200201FA02FCC2F1200250EA4C0021FA02F243EB020008BF20EADC7070474FF0FF0C1CEAD0521EBF1CEAD15392EA0C0F93EA0C0F6FD01A4480EA010C400297
:402FC00018BF5FEA41211ED04FF0006343EA501043EA5111A0FB01310CF00040B1F5000F3EBF490041EAD3715B0040EA010062F17F02FD2A1DD8B3F1004F40EBC25008BFC3
:4030000020F00100704790F0000F0CF0004C08BF49024CEA502040EA51207F3AC2BFD2F1FF0340EAC250704740F400004FF00003013A5DDC12F1190FDCBF00F00040704715
:40304000C2F10002410021FA02F1C2F1200200FA02FC5FEA310040F1000053EA4C0308BF20EADC70704792F0000F00F0004C02BF400010F4000F013AF9D040EA0C0093F0D6
:40308000000F01F0004C02BF490011F4000F013BF9D041EA0C018FE70CEAD15392EA0C0F18BF93EA0C0F0AD030F0004C18BF31F0004CD8D180EA010000F00040704790F0CE
:4030C000000F17BF90F0004F084691F0000F91F0004F14D092EA0C0F01D142020FD193EA0C0F03D14B0218BF084608D180EA010000F0004040F0FE4040F40000704740F022
:40310000FE4040F4400070474FF0FF0C1CEAD0521EBF1CEAD15392EA0C0F93EA0C0F69D0A2EB030280EA010C49024FEA402037D04FF0805343EA111143EA10130CF0004064
:403140008B4238BF5B0042F17D024FF4000C8B4224BF5B1A40EA0C00B3EB510F24BFA3EB510340EA5C00B3EB910F24BFA3EB910340EA9C00B3EBD10F24BFA3EBD10340EA95
:40318000DC001B0118BF5FEA1C1CE0D1FD2A3FF650AF8B4240EBC25008BF20F0010070470CF0004C4CEA50207F32C2BFD2F1FF0340EAC250704740F400004FF00003013A91
:4031C00037E792F0000F00F0004C02BF400010F4000F013AF9D040EA0C0093F0000F01F0004C02BF490011F4000F013BF9D041EA0C0195E70CEAD15392EA0C0F08D1420222
:403200007FF47DAF93EA0C0F7FF470AF084676E793EA0C0F04D14B023FF44CAF08466EE730F0004C18BF31F0004CCAD130F000427FF45CAF31F000437FF43CAF5FE700BF9D
:40324000014B1868704700BFC482FF1F0E4B70B51E460E4C0025E41AA410A54204D056F8253098470135F8E703F09CF8084B094C1E46E41AA4100025A54204D056F825307B
:4032800098470135F8E770BDB0630000B0630000B0630000B863000010B5431E0A44914204D011F8014B03F8014FF8E710BD03460244934202D003F8011BFAE770472DE937
:4032C000F04788B0149F002B1E461299B8BF03F1004327F02007B6BF1E4600232D23462F1446109DDDF84CA00B7003D0452F03D1013501E0032300E0022307AA049206AA2E
:4033000003928DE828042246334600F065FD472F804602D1119BDB0728D5462F08EB050911D198F80030302B0AD1002200232046314602F0A5FA18B9C5F10105CAF80050EA
:40334000DAF800309944002200232046314602F097FA08B9302202E0CDF81C9006E0079B994503D9591C07911A70F8E74046079B159AC8EB0303136008B0BDE8F08703468B
:4033800073B50029B8BF494203F8022BB4BF2D222B22092942701ADD0DF1070216460A2591FBF5F405FB1411092C01F1300102F8011D2146F4DC3031541E02F8011CB442F5
:4033C0001A460AD214F8012B03F8012BF7E71A463024214402F8024B5970101A02B070BD2DE9F04F91B00C46DDF8688016461F46054601F089FA03681846099300F056FC56
:4034000000230E93D8F800300A90073323F0070303F1080294F81890D4F800B0C8F80020D3E90023C4E91223D4F84CA0D4F848802AF000430B934FF0FF32A74B40460B99B5
:4034400002F050FAA0B94FF0FF32A34B40460B9902F02AFA60B9002200234046514602F019FA10B12D2384F843309C4B9C4A0AE0424653464046514602F034FA002800F06C
:403480009281984B984AB9F1470F8CBF90469846032323612BF0040323604FF0000A3DE0B9F1670F00F08A81B9F1470F00F0868123600193636800210DF13302059002920F
:4034C0000093424653460691CDF81090CDF80CE02846FFF7F4FE09F0DF03472B804600F08481B9F1650F0D9900F28D8101394A4604F150000D91FFF742FF0E9A824683185A
:40350000012A236100F37C812268D10700F178819DF8333013B12D2384F84330009733460FAA2146284600F09FF9013002D14FF0FF3096E123685A0501D4236965E0B9F15C
:40354000650F40F2D580D4E912010022002302F097F978B30123654A31462846B8470130E5D00E9B0D9A9A420BDB2368D80708D423689B0740F111814FF0000804F119094B
:4035800006E10A9B099A31462846B8470130CED04FF0000804F11A090E9B013B9845E7DA01234A4631462846B8470130BFD008F10108F1E70D9B002B29DC01234B4A31460D
:4035C0002846B8470130B2D00D9B23B90E9B13B92368D907CCD50A9B099A31462846B8470130A4D04FF0000904F11A0A0D9B5B42994509DA0123524631462846B84701309D
:4036000095D009F10109F1E70E9B4246A7E00E9AA36D9A42A8BF1A46002A914606DC4FF0000A29EAE97904F11A0B11E01346314642462846B8470130F1D178E701235A46AF
:4036400031462846B84701303FF471AF0AF1010AA36DC9EB03029245F0DB08EB03090D9A0E9B9A420FDB2368DA070CD40E9B0D9A9844C9EB08089B1A9845A8BF9846B8F1A0
:40368000000F08DC0FE00A9B099A31462846B8470130EBD14BE743464A4631462846B84701303FF444AF4FF0000928EAE87804F11A0A09E00123524631462846B8470130FC
:4036C0003FF435AF09F101090D9A0E9B9B1AC8EB03039945EEDB4BE7FFFFEF7F42620000466200004A6200004E620000526200000E9A012A01DCDB0738D50123424631468E
:403700002846B84701303FF412AF0A9B099A31462846B84701303FF40AAFD4E912010022002302F0ADF820B14FF0000804F11A090EE00E9B08F10102013B19E001234A4656
:4037400031462846B84701303FF4F1AE08F101080E9B013B9845F1DB534604F1500231462846B84701307FF403AFE0E64246012331462846B8470130EED1D8E601234A4600
:4037800031462846B84701303FF4D1AE08F10108E3680F9A9B1A9845F0DBE0680F9B9842B8BF18465DE062680EA8531C0DF1340E4BF480637FF474AE062201E012B9012234
:4037C000626075E6002106910DF133018DE80C00236005904246CDF81090CDF80CE0029153462846FFF76BFD80460D9BD81C02DB626893421DDDA9F102095FFA89F970E6E5
:403800000133236184E6B9F1660F14D10029636807DD216113B92268D2071DD501330B4419E013B92268D00701D5023313E0012311E04FF067090D9B0E9A934205DB2268ED
:403840002361D10708D5013305E0002BD4BFC3F102030123134423610D9B4FF0000AA36556E611B0BDE8F08F2DE9F04791461F460A698B6806469342B8BF1346C9F8003095
:4038800091F843200C46DDF8208012B10133C9F800302368990642BFD9F800300233C9F80030256815F0060510D104F1190A07E00123524639463046C04701301AD0013595
:4038C000E368D9F800209B1A9D42F1DB94F843302268003318BF012392060FD5E118302081F843005A1C94F845102244023382F8431003E04FF0FF30BDE8F08704F143028E
:4039000039463046C0470130F4D02268D9F80050E36802F00602042A08BF5D1B2269A3680CBF25EAE57500259342C4BF9B1AED184FF000091A344D4509D00123224639462C
:403940003046C0470130D5D009F10109F3E70020BDE8F0872DE9F04317460A7E85B06E2A984606460C460C9B01F1430E00F0AE8011D8632A22D009D8002A00F0BB80582A3B
:4039800040F0CA8081F84520834955E0642A1ED0692A1CD0C0E0732A00F0B08009D86F2A2ED0702A40F0B8800A6842F020020A603EE0752A24D0782A3AD0ADE01A6801F14E
:4039C0004205111D1960136884F84230A8E021681A6811F0800F02D0111D196008E011F0400F02F10401196002D0B2F9003000E01368002B3CDA2D225B4284F8432037E000
:403A000021681A6811F0800F02D0111D196007E011F0400F02F10401196001D0138800E01368227E5C496F2A14BF0A2208221BE078225A4984F845202268186812F0800F48
:403A400000F104051D6003D1550601D5038800E00368D00744BF42F0200222601BB9226822F0200222601022002084F8430001E049490A226568002DA56008DB206820F006
:403A8000040020602BB9002D7DD175460CE0002B79D07546B3FBF2F002FB1033CB5C05F8013D03460028F5D1082A0BD12368DA0708D5236962689A42DEBF302305F8013C31
:403AC00005F1FF35C5EB0E0323612EE008681A6810F0800F496903D0101D1860136808E010F0400F02F104001860136801D0198000E0196000232361754616E01A68111D37
:403B00001960156800216268284600F009FF08B1401B6060636804E004F1420584F8422001232361002384F84330CDF800803B4603AA21463046FFF797FE013002D14FF0C9
:403B4000FF3026E023692A4639463046C0470130F5D023689B0710D5002504F1190907E001234A4639463046C0470130E7D00135E368039A9B1A9D42F2DBE068039B984216
:403B8000B8BF184605E00B7804F1420584F842308AE705B0BDE8F083546200006562000038B5124B05461C68A36BD3B9182000F0AFFE43F20E33A06303804AF6CD3343805C
:403BC00041F2342383804EF26D63C3804DF6EC630381052343810B23838101220023C0E90423A36B00221D615A6138BDC482FF1F194B10B51C68A36BD3B9182000F088FEE4
:403C000043F20E33A06303804AF6CD33438041F2342383804EF26D63C3804DF6EC630381052343810B23838101220023C0E90423A16B0A4C0B6948695C43094A02FB0040A5
:403C4000A3FB02230132034443F10003C1E9042323F0004010BD00BFC482FF1F2DF451582D7F954C0EB400B54FF402719CB0ADF814106FF00041049107914FF6FF711DABD9
:403C800002900690084853F8042BADF81610006802A9019301F03AFA029B00221A701CB05DF804EB03B07047C482FF1F034613F8012B002AFBD1181A013870472DE9F74F60
:403CC00003690C6980469C427FDC013C01F114074FEA840E00F1140606EB0E0357F82450019356F824300135B3FBF5F507EB0E09C5B34FF0000A3846B446D34650F8043B19
:403D00009AB205FB02A21B0C4FEA124A05FB03A392B2C2EB0B0BBCF800204FEA134A5A441FFA83FBDCF800308145CBEB134303EB224392B242EA03424FEA234B4CF8042B93
:403D4000DCD256F80E306BB9019B043B9E421A4602D3C8F8104005E01268043B002AF8D1013CF3E7404600F0F6FF00282BDB304601354FF0000E57F8042B036891B2C1EBD3
:403D80000E0E120C99B27144C2EB134303EB214389B24FEA234EB94541EA034340F8043BE9D256F8242006EB840362B9043B9E421A4602D3C8F8104005E01268043B002A9D
:403DC000F8D1013CF3E7284600E0002003B0BDE8F08F0000000000002DE9F04F456A95B08246219CCDE9022345B9102000F090FDCAF82400456085600560C560DAF824302A
:403E0000196859B15A68012393404A608B60504600F0C9FDDAF8243000221A60039BA04A002BBDBF01232360039B0023BCBF23F000430393DDF80C80A8BF236028F00043F7
:403E40001B0D1B0593421DD142F20F73209A1360029B43B9934A944BC8F31300002814BF1846104600E09048229B002B00F04685C37813B100F1080300E0C31C229A13603E
:403E800000F03CBDDDE90245002200232046294601F0F6FC074658B1209A01231360229B002B00F01E8581481860013800F026BD12AB019313AB009322462B46504600F09F
:403EC000C5FFC8F30A56049056B1C5F3130343F07F51204641F44011A6F2FF3611971DE0139B129E1E4406F23243202B0ADD029A06F21240C3F1400322FA00F008FA03F3D9
:403F0000184304E0C3F12000029B03FA00F0FEF7C3FE0123A1F1F871013E11930022644BFEF77CFD58A3D3E9002301F041FA58A3D3E90023FEF774FD044630460D46FEF79F
:403F4000BBFE55A3D3E9002301F032FA02460B4620462946FEF764FD04460D4601F0D8FC0022834600232046294601F093FC58B15846FEF7A1FE02460B462046294601F071
:403F80007FFC08B90BF1FF3BBBF1160F0DD8DDE90223484901EBCB01D1E9000101F098FC30B10BF1FF3B002300E00123109300E01090129B9E1B731E079343BFC3F10008B5
:403FC000002307934FF00008BBF1000F06DB079BCDF82CB05B440793002705E00023CBEB0808CBF100070B931E9B092B28D8052BC4BF043B1E931E9BC8BF0025A3F10203C1
:40400000D8BF0125032B20D8DFE803F0060E0204012302E0012308E000230A931F9B002B1DDD9946059321E000230A931F9B0BEB030909F10103012B0593B8BF012315E0D2
:40404000012500231E930A9501E001230A934FF0FF390022CDF8149012231F9206E04FF001094B46CDF81490CDF87C90DAF8244000226260042101F114029A421CD8626842
:40408000490001326260F6E761436F63A787D23FB3C8608B288AC63FFB799F501344D33F0000F07F766200007F620000536200000000F83F906200006168504600F03EFCB8
:4040C000DAF8243020601B680693059B0E2B00F25B81002D00F05881DDE90234BBF1000FCDE90E3430DD9F4A0BF00F034FEA2B1502EBC303E80618CBCDE908340CD5DDE919
:404100000E01994B05F00F05D3E9082301F07AFA0324CDE9020100E00224934E6DB1E90708D5DDE90801D6E9002301F041F9CDE9080101346D100836F0E7DDE90823DDE96C
:40414000020101F05FFA20E0CBF1000505B3DDE90E01844B05F00F0203EBC203D3E9002301F026F9CDE902017F4E2D110023022455B1EA0705D5D6E9002301F019F9013435
:4041800001236D100836F3E71BB1CDE9020100E00224109BE3B1DDE902560022734B2846314601F077FB98B1059B8BB1B9F1000F40F3E6800BF1FF330893314600226C4BA6
:4041C000284601F0F5F80134CDE902014E4602E0059ECDF820B02046FEF76EFDDDE9022301F0E6F8634B0022FEF71AFCA1F1507304460C931D46D6B9DDE9020100225E4BB8
:40420000FEF70CFC22460C9BCDE9020101F060FB002840F03F820C99224601F10043DDE9020101F037FB002840F02B82A8E00A9A4C4B711E002A49D003EBC103D3E90023FB
:4042400000204E4901F0DEF922462B46FEF7E6FBCDE90C01069CDDE9020101F059FB0546FEF72AFD02460B46DDE90201FEF7D6FBDDE90C23303504F8015BCDE9020101F0B2
:4042800009FB002840F01D83DDE9022300203749FEF7C4FBDDE90C2301F0FCFA002840F0D180069BE31AB3426ADADDE90C0100222F4B01F07DF80022CDE90C01DDE90201E4
:4042C0002B4B01F075F8CDE90201C4E703EBC1012246D1E900012B4601F06AF8069BCDE90C011D469C19DDE9020101F011FB0646FEF7E2FC02460B46DDE90201FEF78EFBAE
:40430000303605F8016BAC42CDE902014FF0000222D11A4BDDE90C01FEF782FB02460B46DDE9020101F0D4FA002840F08B80DDE90C2300201149FEF771FB02460B46DDE976
:40434000020101F0A7FAD8B114F8013C621E302B40F0B7821446F7E7054B01F029F8CDE90201C0E790620000686300000000F03F0000244000001C40000014400000E03F79
:40438000DDE90E34CDE90234139B002B7CDBBBF10E0F79DCAB4B03EBCB03D3E900671F9B002B14DA059B002B11DC40F06C810022A54B3046394600F0FBFFDDE9022301F071
:4043C0007DFA059D2E46002840F05F8165E1069CDDE9028932463B464046494601F012F901F096FA0546FEF767FC32463B4600F0DFFF0B46024649464046FEF70FFB05F127
:40440000300E069B04F801EBC3EB040E059B73452DD102460B46FEF703FB8046894602460B463046394601F035FA78B942464B463046394601F024FA002800F04482EB07B2
:4044400004D440E2DDF820B000E01C4614F8012C631E392A07D1069A9A42F6D1069930220BF1010B0A701A7801321A702BE20022764B00F09DFF002200238046894601F01A
:40448000FFF90028A6D01EE20A9A002A2BD01E9A012A0ADC119A12B103F2334302E0129BC3F136033D46444613E0059B5D1EAF42BFBF0B9BEA1B9B180B93059BB6BF2F466F
:4044C0007D1B0025002BA7BF4446059BC3EB08040023079A01211A4450469844079200F001FB064602E03D4644460A9E5CB1079B002B08DDA342A8BF2346079AC3EB080899
:40450000E41AD31A0793002F1DDD0A9BABB18DB131462A46504600F07FFB049A01460646504600F0E8FA04990890504600F03BFA089B04937A1B06D000E03A4604995046E6
:4045400000F06AFB04900121504600F0CBFA0B9B05465BB31A460146504600F05DFB1E9B0546012B18DC029B83B9039BC3F3130373B9039B23F000473F0D3F054FB1079BA4
:4045800008F1010801330793012702E0002700E0029F0B9B73B100E000272B6905EB8303186900F052FAC0F1200004E01E9B012BD9DD0B9F0120079B184410F01F0008D0D1
:4045C000C0F12003042B02DDC0F11C0002E006D018461C30079B8044034404440793B8F1000F05DD42460499504600F063FB0490079B002B05DD29461A46504600F05AFB8B
:404600000546109B23B32946049800F0A4FB00281EDA00230A220499504600F0DBF90A9B0BF1FF3B0490002B00F05F81314600230A22504600F0CEF9B9F1000F06463FDC11
:404640003BE000BF906200000000144000002440059B002B2BDC1E9B022B28DDDDF81490B9F1000F11D129464B460522504600F0B1F901460546049800F06DFB00280CDCF8
:4046800003E0354600E000252E461F9B069C6FEA030B09E03546DDF820B0069B069A5C1C312313700BF1010B05960026F7E00A9BDDF8149023B9069CB2E01E9B022BCFDC68
:4046C000002C05DD31462246504600F0F3FA06469FB17168504600F031F90446326906F10C01023292000C30FEF7D6FD01222146504600F0DFFA059000E00596029B069F47
:4047000003F00103079329460498FFF7D7FA3146044600F13008049800F01DFB059A02902946504600F033FBC36802463BB901460A90049800F00FFB0A9A034600E0012365
:40474000114650460A9300F02EF90A9B53B91E9A42B9079A32B9B8F1390F2AD0029B002B1CDC1DE0029A002A04DB1BD11E9ACAB9079ABAB9002B13DD01220499504600F0BF
:4047800099FA2946049000F0E6FA002803DC07D118F0010F04D0B8F1390F0AD004F131087C1C0CE0002B07F101040BDDB8F1390F03D139233B70013756E008F1010887F880
:4047C00000806CE0069B2746E31A4B4504F8018C3BD000230A220499504600F0FBF8059B04909E424FF00A024FF000033146504604D100F0EFF80646059084E700F0EAF8E1
:40480000002306460A220599504600F0E3F8059079E700230A220499504600F0DBF8049029460498FFF74AFA069B00F1300804F8018BE31A4B45ECDB069B0596B9F1010F2F
:40484000ACBF4B4401331F46002601220499504600F030FA2946049000F07DFA002803DC15D118F0010F12D03C4614F8013C621E392B09D1069B934204D10BF1010B31238E
:40488000069A02E01446F0E70133137007E03C4614F8013C621E302B01D11446F8E72946504600F080F8059B6BB12EB19E4203D03146504600F077F80599504600F073F840
:4048C00001E0DDF820B00499504600F06CF80023209A23700BF101031360229B1BB11C6001E008480AE0069808E0B9F1000F3FF7E2AE1E9B022B7FF7DEAEB1E615B0BDE8BA
:40490000F08F00BF5262000000487047C882FF1F024B0146186800F041BB00BFC482FF1F10B5C9B202449042034605D01C7801308C42F8D1184610BD002010BD70B5456A3D
:4049400004460E463DB91020FFF7E2FF6062456085600560C560656AEB6843B1636ADB6853F8260078B1026843F8262017E021220421204600F0B8FA636AE860DB68002B31
:40498000ECD1002070BD012101FA06F56A1D9200204600F0A9FA0028F3D04660856000230361C36070BD70B5446A06460D463CB91020FFF7ADFF7062446084600460C4605B
:4049C0003DB1736A6A68DB6853F82210296043F8225070BD2DE9F04106460C460D691F4601F1140E0023DEF80000013381B202FB0171000C0F0C02FB007089B201EB004158
:404A00009D424FEA10474EF8041BECDCD7B1A3689D4212DB616830460131FFF78FFF8046226904F10C01023292000C30FEF734FC21463046FFF7B7FF444604EB850301354C
:404A40005F6125612046BDE8F081030C1B0413B90004102300E0002310F07F4F04BF0002083310F0704F04BF0001043310F0404F04BF80000233002803DB420003D5581C1D
:404A800070471846704720207047036813F007020BD0D90722D49A074BBF5B089B08036003604CBF01200220704799B209B91B0C102213F0FF0F04BF1B0A0832190704BF13
:404AC0001B090432990704BF9B080232D90702D45B0805D00132036010467047002070472020704710B50C460121FFF727FF01224461026110BD2DE9F74F14460A692369C1
:404B000088469A42BEBF0B46A0461C46D8F81070D4F81090D8F80830D8F8041007EB09069E42C8BF0131FFF709FF00F114052B4605EB860C0022634502D243F8042BFAE78F
:404B400004F1140208F1140102EB890301EB87070093009B0192934257D9B2F800B0BBF1000F23D08946AE464FF0000859F8044BBEF800A0A3B20BFB03A34FEA144ADEF8ED
:404B8000004043444FEA14480BFB0A84F24604EB13449BB243EA04434F454FEA14484AF8043B01D9D646E1E7CEF80480019B0432B3F802A0BAF1000F21D02C4689462B6876
:404BC0004FF00008B9F800E0B4F802B09BB20AFB0EBEA346F04443EA08434BF8043B59F8043BB4F804E01B0C0AFB03E34F4503EB18434FEA134801D95C46E3E76360043565
:404C0000A7E75CF8043D13B9013E002EF9DC066103B0BDE8F08F00002DE9F843154612F0030206460F4607D0214C013A002354F82220FFF7CFFE0746AD1036D0746A3CB9DB
:404C40001020FFF765FE7062446084600460C460D6F82480D8F808404CB940F271213046FFF740FF04460023C8F8080003604FF00008EB070AD5394622463046FFF73BFF8E
:404C8000814639463046FFF78EFE4F466D100CD0206808B10446ECE7224621463046FFF72AFF2060C0F80080F4E73846BDE8F883586300002DE9F0470C46074691462669C8
:404CC0004FEA621A56444968A368751CAB4202DA01315B00FAE73846FFF730FE002380461A4600F11401534503DA41F823200133F9E72AEAEA73206901EB830319F01F094E
:404D000004F1140101EB800E14D0C9F1200C002208689A4600FA09F0024343F8042B51F8042B8E4522FA0CF2F2D8CAF8042042B1B51C06E0043B51F8042B8E4543F8042F5A
:404D4000F9D8013D3846C8F810502146FFF72BFE4046BDE8F08703690A6910B59B1A11D192001430143183180A4453F8044D52F8041D8C4202D007D3012010BD9842F4D30F
:404D8000002010BD184610BD4FF0FF3010BD2DE9F8430C460746114620461546FFF7DBFF061E08D131463846FFF7C8FD012303614661BDE8F883BCBF23462C46384661682F
:404DC000BABF1D4601260026FFF7B8FD2B69C660266905F1140904F1140101EB860709EB830800F114054FF0000C51F8042B59F8044B93B29C44A3B2240CC3EB0C03C4EBFE
:404E0000124202EB23429BB24FEA224CC84543EA02428E4645F8042BE7D8BE450ED25EF8041B8AB26244131403EB114392B242EA03424FEA234C45F8042BEEE755F8043D8C
:404E40000BB9013EFAE70661BDE8F8832DE9F3411C4601219046089E099DFFF76FFDC4F31302C4F30A5407460CB142F480120192B8F1000F19D002A840F8088DFFF705FE1E
:404E8000009B48B1019AC0F1200102FA01F10B43C2407B61019200E07B61019B002B14BF02210121BB61396107E001A8FFF7EDFD019B01217B613961203034B1A4F233440D
:404EC00004443460C0F1350009E0A0F2324007EB810330601869FFF7B8FDC0EB41102860384602B0BDE8F08138B502FB01F4214600F054F8054618B122460021FEF7D7F923
:404F0000284638BD38B50546002944D051F8043C0C1F002BB8BFE41800F017FA1E4A1368114613B96360146030E0A3420DD92268A018834201BF18685B68121822606360B5
:404F40000C6023E0A24203D813465A68002AF9D118681918A1420BD12168014458188242196013D110685268014419605A600DE002D90C232B6009E021686018824201BF8B
:404F8000106852680918216062605C602846BDE8384000F0DBB938BD6C8AFF1F70B5CD1C25F0030508350C2D38BF0C25002D064601DBA94202D90C23336046E000F0C5F90D
:404FC000234B1C681A462146A1B10B685B1B0ED40B2B03D90B60CC18CD501EE08C420BBF63684B681360636018BF0C4615E00C464968E9E7174C23681BB9304600F07AF987
:4050000020602946304600F075F9431C18D0C41C24F00304A0420DD12560304600F096F904F10B00231D20F00700C31A0ED05A42E25070BD211A304600F05CF90130EBD141
:405040000C233360304600F081F9002070BD00BF6C8AFF1F688AFF1F2DE9F0478E6882469E420C46914698463ED88A8912F4906F3AD02568096902236F1A656905EB45057F
:4050800095FBF3F57B1C43449D4238BF1D4653050FD52946FFF782FF064698B13A462169FEF7FAF8A38923F4906343F08003A38113E02A4600F04BF9064670B9216950463D
:4050C000FFF720FF0C23CAF80030A3894FF0FF3043F04003A381BDE8F08726613E44266046466561ED1BA560464528BF464649463246206800F00EF9A36800209B1BA360D4
:4051000023681E442660BDE8F08700002DE9F04F9DB003938B8980461C060D4616460DD50B695BB94021FFF739FF2860286118B90C23C8F80030CDE040236B610023099368
:4051400020238DF82930DFF89CB130238DF82A3037463C4614F8013B1BB9B7EB060910D003E0252BF9D02746F3E74B46324629464046FFF771FF013000F0A780099B4B44EA
:4051800009933B78002B00F0A08000234FF0FF3204930793059206938DF853301A930126052221784E48FFF7BBFB671C049B38B14B4A3C46801A06FA00F018430490EFE722
:4051C000D90644BF20228DF853201A0744BF2B228DF8532022782A2A03D0079A00210A200BE0039A111D12680391002A10DA524243F00200079204900BE027463B7801346F
:40520000303B092B03D800FB02320121F5E701B107923B782E2B1ED17B782A2B0AD1039B02371A1D1B680392002BB8BF4FF0FF33059310E0002319460593781C0A24074674
:405240003A780130303A092A03D804FB01210123F5E703B10591032239782248FFF760FB40B14023CBEB000003FA00F0049B013718430490397806221B487E1C8DF8281087
:40528000FFF74EFB88B1194B33B9039B073323F007030833039314E003AB00932A46144B04A94046FEF79CF807E003AB00932A460F4B04A94046FEF74DFBB0F1FF3F824697
:4052C00003D0099B5344099342E7AB895B0601D4099801E04FF0FF301DB0BDE8F08F00BF90630000966300009A630000E13300005950000038B5064C0023054608462360AD
:40530000FCF74EF8431C02D1236803B12B6038BD44A8FF1F884210B501EB020301D8421E0BE09842FBD28118D21AD34204D013F8014D01F8014DF8E710BD994204D011F87C
:40534000014B02F8014FF8E710BD70477047F8B5074615460E4621B91146BDE8F840FFF71DBE1AB9FFF7CEFD2846F8BD00F015F885420ED929463846FFF710FE044650B157
:4053800031462A46FDF788FF31463846FFF7BAFD01E03046F8BD2046F8BD51F8040C0028BEBF091851F8043CC01804387047000070B54FF0FF0C4CF4E06C1CEA11541DBF0D
:4053C0001CEA135594EA0C0F95EA0C0F00F0DEF82C4481EA030621EA4C5123EA4C5350EA013518BF52EA033541F4801143F4801338D0A0FB02CE4FF00005E1FB02E506F053
:405400000042E0FB03E54FF00006E1FB03569CF0000F18BF4EF0010EA4F1FF04B6F5007F64F5407404D25FEA4E0E6D4146EB060642EAC62141EA55514FEAC52040EA5E501F
:405440004FEACE2EB4F1FD0C88BFBCF5E06F1ED8BEF1004F08BF5FEA500E50F1000041EB045170BD06F0004646EA010140EA020081EA0301B4EB5C04C2BFD4EB0C0541EA2D
:40548000045170BD41F480114FF0000E013C00F3AB8014F1360FDEBF002001F0004170BDC4F10004203C35DA0C341BDC04F11404C4F1200500FA05F320FA04F001FA05F262
:4054C00040EA020001F0004221F0004110EBD37021FA04F642EB06015EEA430E08BF20EAD37070BDC4F10C04C4F1200500FA04F320FA05F001FA04F240EA020001F00041AC
:4055000010EBD37041F100015EEA430E08BF20EAD37070BDC4F1200500FA05F24EEA020E20FA04F301FA05F243EA020321FA04F001F0004121FA04F220EA020000EBD3704C
:405540005EEA430E08BF20EAD37070BD94F0000F0FD101F00046400041EB010111F4801F08BF013CF7D041EA060195F0000F18BF704703F00046520043EB030313F4801F11
:4055800008BF013DF7D043EA0603704794EA0C0F0CEA135518BF95EA0C0F0CD050EA410618BF52EA4306D1D181EA030101F000414FF0000070BD50EA410606BF1046194667
:4055C00052EA430619D094EA0C0F02D150EA013613D195EA0C0F05D152EA03361CBF104619460AD181EA030101F0004141F0FE4141F470014FF0000070BD41F0FE4141F464
:40560000780170BD70B54FF0FF0C4CF4E06C1CEA11541DBF1CEA135594EA0C0F95EA0C0F00F0A7F8A4EB050481EA030E52EA03354FEA013100F088804FEA03334FF08055E4
:4056400045EA131343EA12634FEA022245EA111545EA10654FEA00260EF000419D4208BF964244F1FD0404F5407402D25B084FEA3202B61A65EB03055B084FEA32024FF4FF
:4056800080104FF4002CB6EB020E75EB030E22BFB61A754640EA0C005B084FEA3202B6EB020E75EB030E22BFB61A754640EA5C005B084FEA3202B6EB020E75EB030E22BF70
:4056C000B61A754640EA9C005B084FEA3202B6EB020E75EB030E22BFB61A754640EADC0055EA060E18D04FEA051545EA16754FEA06164FEAC30343EA52734FEAC2025FEA21
:405700001C1CC0D111F4801F0BD141EA00014FF000004FF0004CB6E711F4801F04BF01430020B4F1FD0C88BFBCF5E06F3FF6AFAEB5EB030C04BFB6EB020C5FEA500C50F134
:40574000000041EB045170BD0EF0004E4EEA113114EB5C04C2BFD4EB0C0541EA045170BD41F480114FF0000E013C90E645EA060E8DE60CEA135594EA0C0F08BF95EA0C0F84
:405780003FF43BAF94EA0C0F0AD150EA01347FF434AF95EA0C0F7FF425AF104619462CE795EA0C0F06D152EA03353FF4FDAE1046194622E750EA410618BF52EA43067FF419
:4057C000C5AE50EA41047FF40DAF52EA43057FF4EBAE12E74FF0FF3C06E000BF4FF0010C02E000BF4FF0010C4DF804CD4FEA410C7FEA6C5C4FEA430C18BF7FEA6C5C1BD05F
:4058000001B050EA410C0CBF52EA430C91EA030F02BF90EA020F0020704710F1000F91EA030F58BF994208BF90422CBFD8176FEAE37040F0010070474FEA410C7FEA6C5CDD
:4058400002D150EA013C07D14FEA430C7FEA6C5CD6D152EA033CD3D05DF8040B704700BF8446104662468C461946634600E000BF01B5FFF7B7FF002848BF10F1000F01BD0E
:405880004DF808EDFFF7F4FF0CBF012000205DF808FB00BF4DF808EDFFF7EAFF34BF012000205DF808FB00BF4DF808EDFFF7E0FF94BF012000205DF808FB00BF4DF808ED4A
:4058C000FFF7CEFF94BF012000205DF808FB00BF4DF808EDFFF7C4FF34BF012000205DF808FB00BF4FEA410C7FEA6C5C02D150EA013C0AD14FEA430C7FEA6C5C02D152EA58
:40590000033C02D14FF0000070474FF0010070474FEA410212F5001215D211D56FF47873B3EB625212D94FEAC12343F0004343EA505311F0004F23FA02F018BF40427047A9
:405940004FF00000704750EA013005D111F0004008BF6FF0004070474FF00000704700BF000000000000000057656C636F6D650A00000000546F6F20736C6F77200A0000C6
:405980003D3D3D3D3D3D3D3D3D3D3D3D3D3D3D3D3D3D3D3D3D3D3D3D3D3D3D3D3D3D3D3D3D3D3D3D3D3D3D3D3D3D3D3D3D3D3D3D3D3D3D3D3D3D3D0A000000005265616347
:4059C00074696F6E20746573742070726F6772616D0A00005072657373206F6E65206F66207468652074776F20627574746F6E7320746F2073746172742E2E2E200A000078
:405A00004772656174202D20636F727265637420627574746F6E2070726573736564200A5265616374696F6E2074696D6520696E206D733A202564200A0000004572726F78
:405A4000723A20496E636F727265637420627574746F6E20707265737365640A0000000047616D652073636F72653A202564200A546F74616C2074696D65203A2025640A32
:405A800041766572616765207265616374696F6E2074696D6520696E206D733A20252E3266200A47616D65204F766572210A0000FF000000F40100FF0000F4010000FF0039
:405AC000F401000000006400FFFFFF006400000000006400FFFFFF006400000000006400FFFFFF006400000045786365656465642053594D424F4C5F5441424C455F534C90
:405B00004F54532028736565207854726163654765744C6173744572726F72290000000045786365656465642053594D424F4C5F4D41585F4C454E47544820287365652064
:405B40007854726163654765744C6173744572726F7229004578636565646564204F424A4543545F444154415F534C4F54532028736565207854726163654765744C617330
:405B8000744572726F722900537472696E6720746F6F206C6F6E672028736565207854726163654765744C6173744572726F7229000000005452435F53545245414D5F50CF
:405BC0004F52545F524541445F444154412072657475726E6564206572726F722028213D2030292E000000005452435F53545245414D5F504F52545F57524954455F444116
:405C000054412072657475726E6564206572726F722028213D2030292E000000496E76616C6964206576656E7420636F64652028736565207854726163654765744C61739F
:405C4000744572726F722900457863656564656420495352206E657374696E672028736565207854726163654765744C6173744572726F7229000000445754206E6F7420CD
:405C8000737570706F727465642028736565207854726163654765744C6173744572726F722900004457545F435943434E54206E6F7420737570706F727465642028736562
:405CC00065207854726163654765744C6173744572726F7229000000436F756C64206E6F742063726561746520547A4374726C2028736565207854726163654765744C6179
:405D000073744572726F7229000000005265636F726465722073746F7070656420696E2070727654726163654572726F722829000000010001000100010001000100010034
:405D400001000200020002000200020002000200020002000200020002000300030003000300030003000300040004000400040004000400050005000500050005000600BE
:405D8000060006000600070007000700080008000800090009000A000A000A000B000B000C000C000D000D000E000F000F0010001100110012001300140015001600170053
:405DC000180019001A001B001C001D001F0020002100230024002600280029002B002D002F0031003400360038003B003D0040004300460049004C004F00530057005B0062
:405E00005F00630067006C00700075007B00800086008C00920098009F00A600AD00B500BD00C500CE00D700E100EB00F50000010B011701240130013E014C015B016A0154
:405E40007A018B019C01AF01C201D601EA01000217022E02470261027C029802B502D402F402160339035D038303AB03D50300042D045D048E04C204F80430056B05A805BA
:405E8000E8052B067106BA0606075607A90700085B08B9081C098309EF09600AD50A500BD10B560CE20C740D0D0EAC0E520F0010B510731138120713DF13C014AB15A1161D
:405EC000A117AD18C419E91A1A1C581DA51E00206B21E52271240E26BD278029562B412D422F5A318933D1353338B03A493D0040D542CB45E2481C4C7A4FFF52AC56825A55
:405F0000845EB3621267A26B66706075927A0080AA85958BC3913798F59EFEA558AD04B508BD66C524CE44D7CCE0C0EA25F5FFFFFC60DAF266B6BEE0FEF6EE3E9C7A9E8E98
:405F400001000000004F00400C0040510040300000000140001000140140000800400140000A004C01400002105001401000000000500140700E004810000000FF000101A3
:405F800002020202030303030303030304040404040404040404040404040404050505050505050505050505050505050505050505050505050505050505050506060606C9
:405FC000060606060606060606060606060606060606060606060606060606060606060606060606060606060606060606060606060606060606060606060606070707071D
:4060000007070707070707070707070707070707070707070707070707070707070707070707070707070707070707070707070707070707070707070707070707070707A0
:40604000070707070707070707070707070707070707070707070707070707070707070707070707070707070707070707070707070707070707070707070707010000007B
:40608000846000000000000000000000040000000000000000000000FFFFFFFF00000000050000000000000000000000FFFFFFFF00000000000000000000000000000000FB
:4060C0000100000000000000000000000100000000000000010000001027000001000000000000000000000000000000010000000100000000000000000000000100000062
:40610000010000000100000001000000010000000100000080000000010000001000000008000000400000000400000001000000020000000400000008000000010000006D
:40614000010000001000000008000000400000000400000051010000A101000021040000D10300000D04000015060000F1270000F1270000F1270000F1270000F127000031
:40618000F127000000000000000000000000000001000000020000000000000000000000616C726D5F5469636B316D7300000000616C726D5F617263616469616E000000DF
:4061C00065765F427574746F6E5F310065765F427574746F6E5F320065765F427574746F6E5F330065765F427574746F6E5F340074736B5F696E69740000000074736B5F6B
:406200006261636B67726F756E64000074736B5F6576656E7400000074736B5F627574746F6E000074736B5F74696D657200000074736B5F617263616469616E0000000068
:406240004300494E4600696E66004E414E006E616E00300030313233343536373839414243444546003031323334353637383961626364656600496E66696E697479004EDB
:40628000614E00504F534958002E000000000000000000000000F03F000000000000244000000000000059400000000000408F40000000000088C34000000000006AF84006
:4062C0000000000080842E4100000000D01263410000000084D797410000000065CDCD41000000205FA00242000000E876483742000000A2941A6D42000040E59C30A242DC
:406300000000901EC4BCD64200003426F56B0C430080E03779C3414300A0D8855734764300C84E676DC1AB43003D9160E458E143408CB5781DAF154450EFE2D6E41A4B44AD
:4063400092D54D06CFF08044F64AE1C7022DB544B49DD9794378EA4405000000190000007D000000000000000080E03779C34143176E05B5B5B89346F5F93FE9034F384DE0
:40638000321D30F94877825A3CBF737FDD4F1575232D302B2000686C4C0065666745464700000000F8B500BFF8BC08BC9E4670474D0000001D140000F8B500BFF8BC08BC57
:4063C0009E46704729000000D8630000C880FF1F38020000482500000000000088130000FF00FFFF01000000FFFFFFFF88130000FF000000FFFF000048A8FF1FA061000055
:40640000B061000000000000FFFFFFFFFFFFFFFFFFFFFFFFFFFFFFFFFFFFFFFFFFFFFFFFFFFFFFFF0100000002000000030000000400000005000000FFFFFFFF000000005C
:406440000000000004000000030000000600000002000000010000000100000001000000010000000100000001000000FFFFFFFFFFFFFFFFFFFFFFFFFFFFFFFFFFFFFFFF1B
:40648000FFFFFFFFFFFFFFFFFFFFFFFFFFFFFFFFFFFFFFFFFFFFFFFFFFFFFFFFFFFFFFFFFFFFFFFFFFFFFFFFFFFFFFFFFFFFFFFFFFFFFFFFFFFFFFFFFFFFFFFFFFFFFFFF1C
:4064C000FFFFFFFFFFFFFFFFFFFFFFFFFFFFFFFFFFFFFFFFFFFFFFFFFFFFFFFFFFFFFFFFFFFFFFFFFFFFFFFFFFFFFFFFFFFFFFFFFFFFFFFFFFFFFFFFFFFFFFFFFFFFFFFFDC
:40650000FFFFFFFFFFFFFFFF030000000300000003000000030000000300000003000000C0610000CC610000D8610000E4610000F0610000FC6100000C62000018620000EF
:40654000246200003062000044A8FF1F00000000E0A1FF1F1CA6FF1F7F800000030000000000A08C401901004800000000A24A0400000000000000000000000000000000BA
:406580000000000000000000000000000000000000000000406200000000000000000000000000000000000000000000000000000000000000000000000000000000000039
:4065C00000000000000000000000000000000000000000006482FF1F89620000956300009563000095630000956300009563000095630000956300009563000095630000F4
:40660000FFFFFFFFFFFFFFFFFFFFFFFFFFFF000000000000000000000000000000000000000000000000000000000000000000000000000000000000000000000000000068
:40664000000000000000000000000000000000000000000000000000000000000000000000000000000000000000000000000000000000000000000000000000000000001A
:4066800000000000000000000000000000000000000000000000000000000000000000000000000000000000000000000000000000000000000000000000000000000000DA
:4066C000000000000000000000000000000000000000000000000000000000000000000000000000000000000000000000000000000000000000000000000000000000009A
:406700000000000000000000000000000000000000000000000000000000000000000000000000000000000000000000000000000000000000000000000000000000000059
:020000040003F7
:0200000480007A
:4000000001450040024F004009520040015B004002640040036500403B00014038010140500201404A030140270401404B05014046060140470701404408014046090140D7
:40004000420A0140410B0140470C0140420D01403B0E0140310F0140311401404715014052160140511701402E1801404F190140391A01404D1B0140104001401D41014025
:400080001042014006430140054401400F450140094601400B4701400848014004490140134C01400F4D014006500140035101407E0201400A4B004201C208A9093510211E
:4000C000112860A061947C402784830F8401853887728B0F001A03010CC10E381018120214331644189C1A031C18201A2418260228022A182C82300F321334E035013A220F
:40010000404641034210450E46FB47CD483D49FF4AFF4BFF4C224EF04F085004580459045A045C105F0162C0644065016610671168C069016B116C406D016E406F019A0166
:40014000B601D804D904DC11DF010040010106200A9A0C200D080E02111412011302141015201682184019241A381B011E021F802004211028022A222E202F803108338031
:400180003402378038063A803C043E824041421049204B04504052155302850887808B808C808E02C029C2EFC4FFCAADCC9ACEDBD00BD204E010E206E604040105010602DF
:4001C0000F021003180319021C031F04220324032C032D01320235013601370639203F105608580459045B045C915D905F0181848401858489808B048D609104955697094C
:4002000099019D049E039F80A184A507A738AD0AAF10B108B202B302B401B57FB780B920BF45C040C103C712C830C9FFCAFFCBFFCDA0CF04D018D602D720D80CD904DA04F8
:40024000DB04DC01DD03DF01E040E2C0E440E540E6C0E8C0EAC0ECC0EEC00108040409400C010E020F08140216A019181F44202122202380255029042A022B012F013265D0
:4002800035503610388039153D803E0842404308520253085C8062806540680469556A8072027302798081108618872088128A028E2090C4922893049403951596829880D5
:4002C00099249AB49C129F02A201A383A420AEA0B404C024C2D1C4B0CA1BCC3FCE5FD003D610D818DE08E408E601EA0AEE0400CD048D06400C120E641002120D14011632FF
:4003000018721A081C101E6020CD24CD2A802C4D2E80300F348036703A823E105602573A580459045B0C5C105D105F01B820BE10D409D804D904DB04DC11DF0100480101A1
:40034000040406800A6A0C010E02114412041302141416011A421B101F202A802B842C012F803011340638043A013C043EA04C035B085C015F946020658068226922704068
:40038000720878807980872889018C208E0890459145922893149402958096029702981299249AB49B829C019F20A014A201A381A420A680A704AA40AF12B344C03DC29F31
:4003C000C4EFCA9DCCC5CE73D6F2D812DE08EA84EE800114032B040608020B02150D16011730180719241B1B1C061D081E011F34240625402601280129402A062C04334053
:4004000035033607373C39083AA03B803F04580459045C025F01810482048540878089208B108C028D0290019180934094089510972099089A019F08A210A302A501A60811
:40044000A804AB04AE02AF01B01FB7FFB802BE01BF40D440D804D904DB04DC01DF010004010102090408051008620A200C080E0A1024114013021602171419011E0A230225
:4004800025102680272028262A092B042F28302231083208338035243680388439633D203F02621063216440650182058305880189088C0490849122920895809702980234
:4004C00099249A1C9C059E019F28A022A399A680A704AC90AD80C06FC2EFC4EFCA6FCC7FCEAFD80EE204E604EA20EC0208060E02260128042C063001320638083E044060DA
:40050000410546024701481449FF4AFF4BFF4DA04F045018580459045A045C115D035F01604062C06440654066C068C06AC06CC06EC09301A301AF02B102B301C040C106CE
:40054000C510C702C812C9FFCAFFCBFFCDA0CF04D018D280D804D904DA04DB04DC31DD33DF01E040E2C0E440E540E6C0E8C0EAC0ECC0EEC0012203020420050206020710EC
:400580000A4C0D050E4610021108148017641D081F022102231029012A802D022E202F023102353036013E4441064220480849814A014C044F8050085404574072808120CF
:4005C000831387108A048B018C028E209008924093029503988099129E209F01A404A524A601A702AC02B302B580C0FBC2FAC4F5CAB9CCA1CE50D001D234E008E460EA201C
:400600004020410449FF4AFF4BFF4DA04F0450185401580459045A045B0F5C115D135F01604062C06440654066C068C06AC06CC06EC0830287019701A104A601AD04B0014F
:40064000B304B502B701B908BF04C020C105C510C602C806C9FFCAFFCBFFCDAFCE0FCF04D018D280D804D904DA04DB04DC31DD33DF01E040E2C0E440E540E6C0E8C0EAC088
:40068000ECC0EEC0010203020512062007010B220D200E0210021108129015061E401F0124082604270629022A102D81300231203280330137043B223C0A400C428044088C
:4006C0004C804F805680574058407401780289048D048E0490049320970298C099129D049E109F01A280A480A520AB08B140C0F9C2C5C43DCA95CC4DCEC5D025D210D60839
:40070000DE01E030E2400601070413021708230427082F01310833023401350137044030410449FF4AFF4BFF4DA04F0450185280580459045A045B045C315D335F0160402B
:4007400062C06440654066C068C06AC06CC06EC086029201A602B202B401C030C105C501C602C805C9FFCAFFCBFFCDAFCE0FCF04D018D280D804D904DA04DB04DC13DD33C9
:40078000DF01E040E2C0E440E540E6C0E8C0EAC0ECC0EEC00220051609020DA0110814181610170118041A101D101F102410254426012708281829022C802E8431A03280A3
:4007C0003301350137083B203C044010450446404A204B8052405340710276808211844088808A048B109722980899039D109E109F01A280A520AD20AE10B410B580C074BC
:40080000C2C8C474CAD7CCCDCE44D0C2D208E011E220E420EC40EE04120122012E02300234014040410349FF4AFF4BFF4DA04F0450185280580459045A045B045C135D33CE
:400840005F01604062C06440654066C068C06AC06CC06EC0C040C103C620C710C828C9FFCAFFCBFFCDAFCE0FCF04D018D280D804D904DA04DB04DC11DD33DF01E040E2C0F4
:40088000E440E540E6C0E8C0EAC0ECC0EEC00404059006100A400D200F02100211021408170119201A4029102F1131203204331135803680371138643C043F02410242607D
:4008C0004502462055015620700275018520870189028A048B018C488F01C0E0C2C8C459CA54CCB7CECED0C3E080E244E402E6040B01330152035302580459045B045C1185
:400900005D105F01820883208402851F891F8A068D208E069201960697209806990A9B119D019E089F06A201A406A520A806AC04AD14AF09B001B208B318B507B606B720F0
:40094000B980BE05D418D804D904DB04DC22DD20DF01000402010380040206020725080209080D200E800F2110841411164017101E021F0521082402252026102720280699
:400980002A012C113108338235403724380439203D103E465E02670A69806B088180870888808B0290049130924493019580981799409A419B159D809F28A240A390A508CC
:4009C000A610A910AD40AE10C0FDC2FCC4FACA5DCC7BCEF6D680D830E008E204E801EC2001080205050406040808090C0DF30F0C114F139015FF1602180819011C081D0341
:400A0000234027B3280829CC2B232D4230063208330F357C3601378C3B283E05402641034205440445E0460C480649FF4AFF4BFF4C624DA04EF04F41500C560858045904DF
:400A40005A045B045C225D925F016640670269106A306B106D106E106F12890E95049709A401A503A704A801AC01AD05AF0AB30FB401B908D602D711D804D904DB04DC02DC
:400A8000DD20DF010520068007240C100E2A1022111017101B301D021E101F40201024022640271429042B012D202E802F60320435403605372138103E423F1444104502F0
